{
  "contracts/Firefly.sol": {
    "Firefly": {
      "abi": [
        {
          "anonymous": false,
          "inputs": [
            {
              "indexed": false,
              "internalType": "address",
              "name": "author",
              "type": "address"
            },
            {
              "indexed": false,
              "internalType": "uint256",
              "name": "timestamp",
              "type": "uint256"
            },
            {
              "indexed": false,
              "internalType": "string",
              "name": "namespace",
              "type": "string"
            },
            {
              "indexed": false,
              "internalType": "bytes32",
              "name": "uuids",
              "type": "bytes32"
            },
            {
              "indexed": false,
              "internalType": "bytes32",
              "name": "batchHash",
              "type": "bytes32"
            },
            {
              "indexed": false,
              "internalType": "string",
              "name": "payloadRef",
              "type": "string"
            },
            {
              "indexed": false,
              "internalType": "bytes32[]",
              "name": "contexts",
              "type": "bytes32[]"
            }
          ],
          "name": "BatchPin",
          "type": "event"
        },
        {
          "inputs": [
            {
              "internalType": "string",
              "name": "namespace",
              "type": "string"
            },
            {
              "internalType": "bytes32",
              "name": "uuids",
              "type": "bytes32"
            },
            {
              "internalType": "bytes32",
              "name": "batchHash",
              "type": "bytes32"
            },
            {
              "internalType": "string",
              "name": "payloadRef",
              "type": "string"
            },
            {
              "internalType": "bytes32[]",
              "name": "contexts",
              "type": "bytes32[]"
            }
          ],
          "name": "pinBatch",
          "outputs": [],
          "stateMutability": "nonpayable",
          "type": "function"
        }
      ],
      "evm": {
        "bytecode": {
          "linkReferences": {},
          "object": "608060405234801561001057600080fd5b506105f4806100206000396000f3fe608060405234801561001057600080fd5b506004361061002b5760003560e01c80633674e15c14610030575b600080fd5b61004a600480360381019061004591906101a9565b61004c565b005b7f805721bc246bccc732581be0c0aa2dd8f7ec93e97ba4b307be84428c98b0a12f334287878787876040516100879796959493929190610353565b60405180910390a15050505050565b60006100a96100a4846103fc565b6103d7565b905080838252602082019050828560208602820111156100c857600080fd5b60005b858110156100f857816100de888261016a565b8452602084019350602083019250506001810190506100cb565b5050509392505050565b600061011561011084610428565b6103d7565b90508281526020810184848401111561012d57600080fd5b6101388482856104f4565b509392505050565b600082601f83011261015157600080fd5b8135610161848260208601610096565b91505092915050565b600081359050610179816105a7565b92915050565b600082601f83011261019057600080fd5b81356101a0848260208601610102565b91505092915050565b600080600080600060a086880312156101c157600080fd5b600086013567ffffffffffffffff8111156101db57600080fd5b6101e78882890161017f565b95505060206101f88882890161016a565b94505060406102098882890161016a565b935050606086013567ffffffffffffffff81111561022657600080fd5b6102328882890161017f565b925050608086013567ffffffffffffffff81111561024f57600080fd5b61025b88828901610140565b9150509295509295909350565b600061027483836102ed565b60208301905092915050565b610289816104ae565b82525050565b600061029a82610469565b6102a4818561048c565b93506102af83610459565b8060005b838110156102e05781516102c78882610268565b97506102d28361047f565b9250506001810190506102b3565b5085935050505092915050565b6102f6816104c0565b82525050565b610305816104c0565b82525050565b600061031682610474565b610320818561049d565b9350610330818560208601610503565b61033981610596565b840191505092915050565b61034d816104ea565b82525050565b600060e082019050610368600083018a610280565b6103756020830189610344565b8181036040830152610387818861030b565b905061039660608301876102fc565b6103a360808301866102fc565b81810360a08301526103b5818561030b565b905081810360c08301526103c9818461028f565b905098975050505050505050565b60006103e16103f2565b90506103ed8282610536565b919050565b6000604051905090565b600067ffffffffffffffff82111561041757610416610567565b5b602082029050602081019050919050565b600067ffffffffffffffff82111561044357610442610567565b5b61044c82610596565b9050602081019050919050565b6000819050602082019050919050565b600081519050919050565b600081519050919050565b6000602082019050919050565b600082825260208201905092915050565b600082825260208201905092915050565b60006104b9826104ca565b9050919050565b6000819050919050565b600073ffffffffffffffffffffffffffffffffffffffff82169050919050565b6000819050919050565b82818337600083830152505050565b60005b83811015610521578082015181840152602081019050610506565b83811115610530576000848401525b50505050565b61053f82610596565b810181811067ffffffffffffffff8211171561055e5761055d610567565b5b80604052505050565b7f4e487b7100000000000000000000000000000000000000000000000000000000600052604160045260246000fd5b6000601f19601f8301169050919050565b6105b0816104c0565b81146105bb57600080fd5b5056fea264697066735822122061023cd0c04051ec5c4b0d519dff2ca240ba0dee202ae2aceb72c566f049faf764736f6c63430008040033",
          "opcodes": "PUSH1 0x80 PUSH1 0x40 MSTORE CALLVALUE DUP1 ISZERO PUSH2 0x10 JUMPI PUSH1 0x0 DUP1 REVERT JUMPDEST POP PUSH2 0x5F4 DUP1 PUSH2 0x20 PUSH1 0x0 CODECOPY PUSH1 0x0 RETURN INVALID PUSH1 0x80 PUSH1 0x40 MSTORE CALLVALUE DUP1 ISZERO PUSH2 0x10 JUMPI PUSH1 0x0 DUP1 REVERT JUMPDEST POP PUSH1 0x4 CALLDATASIZE LT PUSH2 0x2B JUMPI PUSH1 0x0 CALLDATALOAD PUSH1 0xE0 SHR DUP1 PUSH4 0x3674E15C EQ PUSH2 0x30 JUMPI JUMPDEST PUSH1 0x0 DUP1 REVERT JUMPDEST PUSH2 0x4A PUSH1 0x4 DUP1 CALLDATASIZE SUB DUP2 ADD SWAP1 PUSH2 0x45 SWAP2 SWAP1 PUSH2 0x1A9 JUMP JUMPDEST PUSH2 0x4C JUMP JUMPDEST STOP JUMPDEST PUSH32 0x805721BC246BCCC732581BE0C0AA2DD8F7EC93E97BA4B307BE84428C98B0A12F CALLER TIMESTAMP DUP8 DUP8 DUP8 DUP8 DUP8 PUSH1 0x40 MLOAD PUSH2 0x87 SWAP8 SWAP7 SWAP6 SWAP5 SWAP4 SWAP3 SWAP2 SWAP1 PUSH2 0x353 JUMP JUMPDEST PUSH1 0x40 MLOAD DUP1 SWAP2 SUB SWAP1 LOG1 POP POP POP POP POP JUMP JUMPDEST PUSH1 0x0 PUSH2 0xA9 PUSH2 0xA4 DUP5 PUSH2 0x3FC JUMP JUMPDEST PUSH2 0x3D7 JUMP JUMPDEST SWAP1 POP DUP1 DUP4 DUP3 MSTORE PUSH1 0x20 DUP3 ADD SWAP1 POP DUP3 DUP6 PUSH1 0x20 DUP7 MUL DUP3 ADD GT ISZERO PUSH2 0xC8 JUMPI PUSH1 0x0 DUP1 REVERT JUMPDEST PUSH1 0x0 JUMPDEST DUP6 DUP2 LT ISZERO PUSH2 0xF8 JUMPI DUP2 PUSH2 0xDE DUP9 DUP3 PUSH2 0x16A JUMP JUMPDEST DUP5 MSTORE PUSH1 0x20 DUP5 ADD SWAP4 POP PUSH1 0x20 DUP4 ADD SWAP3 POP POP PUSH1 0x1 DUP2 ADD SWAP1 POP PUSH2 0xCB JUMP JUMPDEST POP POP POP SWAP4 SWAP3 POP POP POP JUMP JUMPDEST PUSH1 0x0 PUSH2 0x115 PUSH2 0x110 DUP5 PUSH2 0x428 JUMP JUMPDEST PUSH2 0x3D7 JUMP JUMPDEST SWAP1 POP DUP3 DUP2 MSTORE PUSH1 0x20 DUP2 ADD DUP5 DUP5 DUP5 ADD GT ISZERO PUSH2 0x12D JUMPI PUSH1 0x0 DUP1 REVERT JUMPDEST PUSH2 0x138 DUP5 DUP3 DUP6 PUSH2 0x4F4 JUMP JUMPDEST POP SWAP4 SWAP3 POP POP POP JUMP JUMPDEST PUSH1 0x0 DUP3 PUSH1 0x1F DUP4 ADD SLT PUSH2 0x151 JUMPI PUSH1 0x0 DUP1 REVERT JUMPDEST DUP2 CALLDATALOAD PUSH2 0x161 DUP5 DUP3 PUSH1 0x20 DUP7 ADD PUSH2 0x96 JUMP JUMPDEST SWAP2 POP POP SWAP3 SWAP2 POP POP JUMP JUMPDEST PUSH1 0x0 DUP2 CALLDATALOAD SWAP1 POP PUSH2 0x179 DUP2 PUSH2 0x5A7 JUMP JUMPDEST SWAP3 SWAP2 POP POP JUMP JUMPDEST PUSH1 0x0 DUP3 PUSH1 0x1F DUP4 ADD SLT PUSH2 0x190 JUMPI PUSH1 0x0 DUP1 REVERT JUMPDEST DUP2 CALLDATALOAD PUSH2 0x1A0 DUP5 DUP3 PUSH1 0x20 DUP7 ADD PUSH2 0x102 JUMP JUMPDEST SWAP2 POP POP SWAP3 SWAP2 POP POP JUMP JUMPDEST PUSH1 0x0 DUP1 PUSH1 0x0 DUP1 PUSH1 0x0 PUSH1 0xA0 DUP7 DUP9 SUB SLT ISZERO PUSH2 0x1C1 JUMPI PUSH1 0x0 DUP1 REVERT JUMPDEST PUSH1 0x0 DUP7 ADD CALLDATALOAD PUSH8 0xFFFFFFFFFFFFFFFF DUP2 GT ISZERO PUSH2 0x1DB JUMPI PUSH1 0x0 DUP1 REVERT JUMPDEST PUSH2 0x1E7 DUP9 DUP3 DUP10 ADD PUSH2 0x17F JUMP JUMPDEST SWAP6 POP POP PUSH1 0x20 PUSH2 0x1F8 DUP9 DUP3 DUP10 ADD PUSH2 0x16A JUMP JUMPDEST SWAP5 POP POP PUSH1 0x40 PUSH2 0x209 DUP9 DUP3 DUP10 ADD PUSH2 0x16A JUMP JUMPDEST SWAP4 POP POP PUSH1 0x60 DUP7 ADD CALLDATALOAD PUSH8 0xFFFFFFFFFFFFFFFF DUP2 GT ISZERO PUSH2 0x226 JUMPI PUSH1 0x0 DUP1 REVERT JUMPDEST PUSH2 0x232 DUP9 DUP3 DUP10 ADD PUSH2 0x17F JUMP JUMPDEST SWAP3 POP POP PUSH1 0x80 DUP7 ADD CALLDATALOAD PUSH8 0xFFFFFFFFFFFFFFFF DUP2 GT ISZERO PUSH2 0x24F JUMPI PUSH1 0x0 DUP1 REVERT JUMPDEST PUSH2 0x25B DUP9 DUP3 DUP10 ADD PUSH2 0x140 JUMP JUMPDEST SWAP2 POP POP SWAP3 SWAP6 POP SWAP3 SWAP6 SWAP1 SWAP4 POP JUMP JUMPDEST PUSH1 0x0 PUSH2 0x274 DUP4 DUP4 PUSH2 0x2ED JUMP JUMPDEST PUSH1 0x20 DUP4 ADD SWAP1 POP SWAP3 SWAP2 POP POP JUMP JUMPDEST PUSH2 0x289 DUP2 PUSH2 0x4AE JUMP JUMPDEST DUP3 MSTORE POP POP JUMP JUMPDEST PUSH1 0x0 PUSH2 0x29A DUP3 PUSH2 0x469 JUMP JUMPDEST PUSH2 0x2A4 DUP2 DUP6 PUSH2 0x48C JUMP JUMPDEST SWAP4 POP PUSH2 0x2AF DUP4 PUSH2 0x459 JUMP JUMPDEST DUP1 PUSH1 0x0 JUMPDEST DUP4 DUP2 LT ISZERO PUSH2 0x2E0 JUMPI DUP2 MLOAD PUSH2 0x2C7 DUP9 DUP3 PUSH2 0x268 JUMP JUMPDEST SWAP8 POP PUSH2 0x2D2 DUP4 PUSH2 0x47F JUMP JUMPDEST SWAP3 POP POP PUSH1 0x1 DUP2 ADD SWAP1 POP PUSH2 0x2B3 JUMP JUMPDEST POP DUP6 SWAP4 POP POP POP POP SWAP3 SWAP2 POP POP JUMP JUMPDEST PUSH2 0x2F6 DUP2 PUSH2 0x4C0 JUMP JUMPDEST DUP3 MSTORE POP POP JUMP JUMPDEST PUSH2 0x305 DUP2 PUSH2 0x4C0 JUMP JUMPDEST DUP3 MSTORE POP POP JUMP JUMPDEST PUSH1 0x0 PUSH2 0x316 DUP3 PUSH2 0x474 JUMP JUMPDEST PUSH2 0x320 DUP2 DUP6 PUSH2 0x49D JUMP JUMPDEST SWAP4 POP PUSH2 0x330 DUP2 DUP6 PUSH1 0x20 DUP7 ADD PUSH2 0x503 JUMP JUMPDEST PUSH2 0x339 DUP2 PUSH2 0x596 JUMP JUMPDEST DUP5 ADD SWAP2 POP POP SWAP3 SWAP2 POP POP JUMP JUMPDEST PUSH2 0x34D DUP2 PUSH2 0x4EA JUMP JUMPDEST DUP3 MSTORE POP POP JUMP JUMPDEST PUSH1 0x0 PUSH1 0xE0 DUP3 ADD SWAP1 POP PUSH2 0x368 PUSH1 0x0 DUP4 ADD DUP11 PUSH2 0x280 JUMP JUMPDEST PUSH2 0x375 PUSH1 0x20 DUP4 ADD DUP10 PUSH2 0x344 JUMP JUMPDEST DUP2 DUP2 SUB PUSH1 0x40 DUP4 ADD MSTORE PUSH2 0x387 DUP2 DUP9 PUSH2 0x30B JUMP JUMPDEST SWAP1 POP PUSH2 0x396 PUSH1 0x60 DUP4 ADD DUP8 PUSH2 0x2FC JUMP JUMPDEST PUSH2 0x3A3 PUSH1 0x80 DUP4 ADD DUP7 PUSH2 0x2FC JUMP JUMPDEST DUP2 DUP2 SUB PUSH1 0xA0 DUP4 ADD MSTORE PUSH2 0x3B5 DUP2 DUP6 PUSH2 0x30B JUMP JUMPDEST SWAP1 POP DUP2 DUP2 SUB PUSH1 0xC0 DUP4 ADD MSTORE PUSH2 0x3C9 DUP2 DUP5 PUSH2 0x28F JUMP JUMPDEST SWAP1 POP SWAP9 SWAP8 POP POP POP POP POP POP POP POP JUMP JUMPDEST PUSH1 0x0 PUSH2 0x3E1 PUSH2 0x3F2 JUMP JUMPDEST SWAP1 POP PUSH2 0x3ED DUP3 DUP3 PUSH2 0x536 JUMP JUMPDEST SWAP2 SWAP1 POP JUMP JUMPDEST PUSH1 0x0 PUSH1 0x40 MLOAD SWAP1 POP SWAP1 JUMP JUMPDEST PUSH1 0x0 PUSH8 0xFFFFFFFFFFFFFFFF DUP3 GT ISZERO PUSH2 0x417 JUMPI PUSH2 0x416 PUSH2 0x567 JUMP JUMPDEST JUMPDEST PUSH1 0x20 DUP3 MUL SWAP1 POP PUSH1 0x20 DUP2 ADD SWAP1 POP SWAP2 SWAP1 POP JUMP JUMPDEST PUSH1 0x0 PUSH8 0xFFFFFFFFFFFFFFFF DUP3 GT ISZERO PUSH2 0x443 JUMPI PUSH2 0x442 PUSH2 0x567 JUMP JUMPDEST JUMPDEST PUSH2 0x44C DUP3 PUSH2 0x596 JUMP JUMPDEST SWAP1 POP PUSH1 0x20 DUP2 ADD SWAP1 POP SWAP2 SWAP1 POP JUMP JUMPDEST PUSH1 0x0 DUP2 SWAP1 POP PUSH1 0x20 DUP3 ADD SWAP1 POP SWAP2 SWAP1 POP JUMP JUMPDEST PUSH1 0x0 DUP2 MLOAD SWAP1 POP SWAP2 SWAP1 POP JUMP JUMPDEST PUSH1 0x0 DUP2 MLOAD SWAP1 POP SWAP2 SWAP1 POP JUMP JUMPDEST PUSH1 0x0 PUSH1 0x20 DUP3 ADD SWAP1 POP SWAP2 SWAP1 POP JUMP JUMPDEST PUSH1 0x0 DUP3 DUP3 MSTORE PUSH1 0x20 DUP3 ADD SWAP1 POP SWAP3 SWAP2 POP POP JUMP JUMPDEST PUSH1 0x0 DUP3 DUP3 MSTORE PUSH1 0x20 DUP3 ADD SWAP1 POP SWAP3 SWAP2 POP POP JUMP JUMPDEST PUSH1 0x0 PUSH2 0x4B9 DUP3 PUSH2 0x4CA JUMP JUMPDEST SWAP1 POP SWAP2 SWAP1 POP JUMP JUMPDEST PUSH1 0x0 DUP2 SWAP1 POP SWAP2 SWAP1 POP JUMP JUMPDEST PUSH1 0x0 PUSH20 0xFFFFFFFFFFFFFFFFFFFFFFFFFFFFFFFFFFFFFFFF DUP3 AND SWAP1 POP SWAP2 SWAP1 POP JUMP JUMPDEST PUSH1 0x0 DUP2 SWAP1 POP SWAP2 SWAP1 POP JUMP JUMPDEST DUP3 DUP2 DUP4 CALLDATACOPY PUSH1 0x0 DUP4 DUP4 ADD MSTORE POP POP POP JUMP JUMPDEST PUSH1 0x0 JUMPDEST DUP4 DUP2 LT ISZERO PUSH2 0x521 JUMPI DUP1 DUP3 ADD MLOAD DUP2 DUP5 ADD MSTORE PUSH1 0x20 DUP2 ADD SWAP1 POP PUSH2 0x506 JUMP JUMPDEST DUP4 DUP2 GT ISZERO PUSH2 0x530 JUMPI PUSH1 0x0 DUP5 DUP5 ADD MSTORE JUMPDEST POP POP POP POP JUMP JUMPDEST PUSH2 0x53F DUP3 PUSH2 0x596 JUMP JUMPDEST DUP2 ADD DUP2 DUP2 LT PUSH8 0xFFFFFFFFFFFFFFFF DUP3 GT OR ISZERO PUSH2 0x55E JUMPI PUSH2 0x55D PUSH2 0x567 JUMP JUMPDEST JUMPDEST DUP1 PUSH1 0x40 MSTORE POP POP POP JUMP JUMPDEST PUSH32 0x4E487B7100000000000000000000000000000000000000000000000000000000 PUSH1 0x0 MSTORE PUSH1 0x41 PUSH1 0x4 MSTORE PUSH1 0x24 PUSH1 0x0 REVERT JUMPDEST PUSH1 0x0 PUSH1 0x1F NOT PUSH1 0x1F DUP4 ADD AND SWAP1 POP SWAP2 SWAP1 POP JUMP JUMPDEST PUSH2 0x5B0 DUP2 PUSH2 0x4C0 JUMP JUMPDEST DUP2 EQ PUSH2 0x5BB JUMPI PUSH1 0x0 DUP1 REVERT JUMPDEST POP JUMP INVALID LOG2 PUSH5 0x6970667358 0x22 SLT KECCAK256 PUSH2 0x23C 0xD0 0xC0 BLOCKHASH MLOAD 0xEC 0x5C 0x4B 0xD MLOAD SWAP14 SELFDESTRUCT 0x2C LOG2 BLOCKHASH 0xBA 0xD 0xEE KECCAK256 0x2A 0xE2 0xAC 0xEB PUSH19 0xC566F049FAF764736F6C634300080400330000 "
        },
        "methodIdentifiers": {
          "pinBatch(string,bytes32,bytes32,string,bytes32[])": "3674e15c"
        }
      }
    }
  }
}