{
  "_format": "hh-sol-artifact-1",
  "contractName": "CustomPin",
  "sourceName": "contracts/CustomPin.sol",
  "abi": [
    {
      "anonymous": false,
      "inputs": [],
      "name": "Hello",
      "type": "event"
    },
    {
      "inputs": [
        {
          "internalType": "bytes",
          "name": "data",
          "type": "bytes"
        }
      ],
      "name": "sayHello",
      "outputs": [],
      "stateMutability": "nonpayable",
      "type": "function"
    },
    {
      "inputs": [
        {
          "internalType": "address",
          "name": "addr",
          "type": "address"
        }
      ],
      "name": "setFireFlyAddress",
      "outputs": [],
      "stateMutability": "nonpayable",
      "type": "function"
    }
  ],
  "bytecode": "0x608060405234801561001057600080fd5b50610474806100206000396000f3fe608060405234801561001057600080fd5b50600436106100365760003560e01c806308ad66c71461003b578063bf128d2714610057575b600080fd5b61005560048036038101906100509190610262565b610073565b005b610071600480360381019061006c919061028b565b6100b6565b005b806000806101000a81548173ffffffffffffffffffffffffffffffffffffffff021916908373ffffffffffffffffffffffffffffffffffffffff16021790555050565b600073ffffffffffffffffffffffffffffffffffffffff1660008054906101000a900473ffffffffffffffffffffffffffffffffffffffff1673ffffffffffffffffffffffffffffffffffffffff161415610146576040517f08c379a000000000000000000000000000000000000000000000000000000000815260040161013d90610344565b60405180910390fd5b7fbcdfe0d5b27dd186282e187525415c57ea3077c34efb39148111e4d342e7ab0e60405160405180910390a160008054906101000a900473ffffffffffffffffffffffffffffffffffffffff1673ffffffffffffffffffffffffffffffffffffffff16635766032e83836040518363ffffffff1660e01b81526004016101cd929190610320565b600060405180830381600087803b1580156101e757600080fd5b505af11580156101fb573d6000803e3d6000fd5b505050505050565b60008135905061021281610427565b92915050565b60008083601f84011261022a57600080fd5b8235905067ffffffffffffffff81111561024357600080fd5b60208301915083600182028301111561025b57600080fd5b9250929050565b60006020828403121561027457600080fd5b600061028284828501610203565b91505092915050565b6000806020838503121561029e57600080fd5b600083013567ffffffffffffffff8111156102b857600080fd5b6102c485828601610218565b92509250509250929050565b60006102dc8385610364565b93506102e98385846103b8565b6102f2836103c7565b840190509392505050565b600061030a602b83610375565b9150610315826103d8565b604082019050919050565b6000602082019050818103600083015261033b8184866102d0565b90509392505050565b6000602082019050818103600083015261035d816102fd565b9050919050565b600082825260208201905092915050565b600082825260208201905092915050565b600061039182610398565b9050919050565b600073ffffffffffffffffffffffffffffffffffffffff82169050919050565b82818337600083830152505050565b6000601f19601f8301169050919050565b7f437573746f6d50696e3a2046697265466c79206164647265737320686173206e60008201527f6f74206265656e20736574000000000000000000000000000000000000000000602082015250565b61043081610386565b811461043b57600080fd5b5056fea264697066735822122015dc0521b59246dd6d4ba613da718146c64974377427b645e39e831b3e35082864736f6c63430008040033",
  "linkReferences": {},
  "deployedLinkReferences": {}
}