{
  "_format": "hh-sol-artifact-1",
  "contractName": "Firefly",
  "sourceName": "contracts/Firefly.sol",
  "abi": [
    {
      "anonymous": false,
      "inputs": [
        {
          "indexed": false,
          "internalType": "address",
          "name": "author",
          "type": "address"
        },
        {
          "indexed": false,
          "internalType": "uint256",
          "name": "timestamp",
          "type": "uint256"
        },
        {
          "indexed": false,
          "internalType": "string",
          "name": "namespace",
          "type": "string"
        },
        {
          "indexed": false,
          "internalType": "bytes32",
          "name": "uuids",
          "type": "bytes32"
        },
        {
          "indexed": false,
          "internalType": "bytes32",
          "name": "batchHash",
          "type": "bytes32"
        },
        {
          "indexed": false,
          "internalType": "string",
          "name": "payloadRef",
          "type": "string"
        },
        {
          "indexed": false,
          "internalType": "bytes32[]",
          "name": "contexts",
          "type": "bytes32[]"
        }
      ],
      "name": "BatchPin",
      "type": "event"
    },
    {
      "inputs": [
        {
          "internalType": "string",
          "name": "namespace",
          "type": "string"
        },
        {
          "internalType": "bytes32",
          "name": "uuids",
          "type": "bytes32"
        },
        {
          "internalType": "bytes32",
          "name": "batchHash",
          "type": "bytes32"
        },
        {
          "internalType": "string",
          "name": "payloadRef",
          "type": "string"
        },
        {
          "internalType": "bytes32[]",
          "name": "contexts",
          "type": "bytes32[]"
        }
      ],
      "name": "pinBatch",
      "outputs": [],
      "stateMutability": "nonpayable",
      "type": "function"
    }
  ],
  "bytecode": "0x608060405234801561001057600080fd5b506105f4806100206000396000f3fe608060405234801561001057600080fd5b506004361061002b5760003560e01c80633674e15c14610030575b600080fd5b61004a600480360381019061004591906101a9565b61004c565b005b7f805721bc246bccc732581be0c0aa2dd8f7ec93e97ba4b307be84428c98b0a12f334287878787876040516100879796959493929190610353565b60405180910390a15050505050565b60006100a96100a4846103fc565b6103d7565b905080838252602082019050828560208602820111156100c857600080fd5b60005b858110156100f857816100de888261016a565b8452602084019350602083019250506001810190506100cb565b5050509392505050565b600061011561011084610428565b6103d7565b90508281526020810184848401111561012d57600080fd5b6101388482856104f4565b509392505050565b600082601f83011261015157600080fd5b8135610161848260208601610096565b91505092915050565b600081359050610179816105a7565b92915050565b600082601f83011261019057600080fd5b81356101a0848260208601610102565b91505092915050565b600080600080600060a086880312156101c157600080fd5b600086013567ffffffffffffffff8111156101db57600080fd5b6101e78882890161017f565b95505060206101f88882890161016a565b94505060406102098882890161016a565b935050606086013567ffffffffffffffff81111561022657600080fd5b6102328882890161017f565b925050608086013567ffffffffffffffff81111561024f57600080fd5b61025b88828901610140565b9150509295509295909350565b600061027483836102ed565b60208301905092915050565b610289816104ae565b82525050565b600061029a82610469565b6102a4818561048c565b93506102af83610459565b8060005b838110156102e05781516102c78882610268565b97506102d28361047f565b9250506001810190506102b3565b5085935050505092915050565b6102f6816104c0565b82525050565b610305816104c0565b82525050565b600061031682610474565b610320818561049d565b9350610330818560208601610503565b61033981610596565b840191505092915050565b61034d816104ea565b82525050565b600060e082019050610368600083018a610280565b6103756020830189610344565b8181036040830152610387818861030b565b905061039660608301876102fc565b6103a360808301866102fc565b81810360a08301526103b5818561030b565b905081810360c08301526103c9818461028f565b905098975050505050505050565b60006103e16103f2565b90506103ed8282610536565b919050565b6000604051905090565b600067ffffffffffffffff82111561041757610416610567565b5b602082029050602081019050919050565b600067ffffffffffffffff82111561044357610442610567565b5b61044c82610596565b9050602081019050919050565b6000819050602082019050919050565b600081519050919050565b600081519050919050565b6000602082019050919050565b600082825260208201905092915050565b600082825260208201905092915050565b60006104b9826104ca565b9050919050565b6000819050919050565b600073ffffffffffffffffffffffffffffffffffffffff82169050919050565b6000819050919050565b82818337600083830152505050565b60005b83811015610521578082015181840152602081019050610506565b83811115610530576000848401525b50505050565b61053f82610596565b810181811067ffffffffffffffff8211171561055e5761055d610567565b5b80604052505050565b7f4e487b7100000000000000000000000000000000000000000000000000000000600052604160045260246000fd5b6000601f19601f8301169050919050565b6105b0816104c0565b81146105bb57600080fd5b5056fea264697066735822122061023cd0c04051ec5c4b0d519dff2ca240ba0dee202ae2aceb72c566f049faf764736f6c63430008040033",
  "linkReferences": {},
  "deployedLinkReferences": {}
}