{
  "_format": "hh-sol-artifact-1",
  "contractName": "Firefly",
  "sourceName": "contracts/Firefly.sol",
  "abi": [
    {
      "anonymous": false,
      "inputs": [
        {
          "indexed": false,
          "internalType": "address",
          "name": "author",
          "type": "address"
        },
        {
          "indexed": false,
          "internalType": "uint256",
          "name": "timestamp",
          "type": "uint256"
        },
        {
          "indexed": false,
          "internalType": "string",
          "name": "action",
          "type": "string"
        },
        {
          "indexed": false,
          "internalType": "bytes32",
          "name": "uuids",
          "type": "bytes32"
        },
        {
          "indexed": false,
          "internalType": "bytes32",
          "name": "batchHash",
          "type": "bytes32"
        },
        {
          "indexed": false,
          "internalType": "string",
          "name": "payloadRef",
          "type": "string"
        },
        {
          "indexed": false,
          "internalType": "bytes32[]",
          "name": "contexts",
          "type": "bytes32[]"
        }
      ],
      "name": "BatchPin",
      "type": "event"
    },
    {
      "inputs": [
        {
          "internalType": "string",
          "name": "action",
          "type": "string"
        },
        {
          "internalType": "string",
          "name": "payload",
          "type": "string"
        }
      ],
      "name": "networkAction",
      "outputs": [],
      "stateMutability": "nonpayable",
      "type": "function"
    },
    {
      "inputs": [],
      "name": "networkVersion",
      "outputs": [
        {
          "internalType": "uint8",
          "name": "",
          "type": "uint8"
        }
      ],
      "stateMutability": "pure",
      "type": "function"
    },
    {
      "inputs": [
        {
          "internalType": "bytes32",
          "name": "uuids",
          "type": "bytes32"
        },
        {
          "internalType": "bytes32",
          "name": "batchHash",
          "type": "bytes32"
        },
        {
          "internalType": "string",
          "name": "payloadRef",
          "type": "string"
        },
        {
          "internalType": "bytes32[]",
          "name": "contexts",
          "type": "bytes32[]"
        }
      ],
      "name": "pinBatch",
      "outputs": [],
      "stateMutability": "nonpayable",
      "type": "function"
    },
    {
      "inputs": [
        {
          "internalType": "bytes",
          "name": "data",
          "type": "bytes"
        }
      ],
      "name": "pinBatchData",
      "outputs": [],
      "stateMutability": "nonpayable",
      "type": "function"
    }
  ],
  "bytecode": "0x608060405234801561001057600080fd5b50610a0c806100206000396000f3fe608060405234801561001057600080fd5b506004361061004c5760003560e01c806348ce1dcc146100515780635766032e1461006d57806397eacfe614610089578063fb9066c1146100a7575b600080fd5b61006b60048036038101906100669190610329565b6100c3565b005b610087600480360381019061008291906103bc565b61010a565b005b610091610178565b60405161009e9190610744565b60405180910390f35b6100c160048036038101906100bc9190610401565b610181565b005b7f805721bc246bccc732581be0c0aa2dd8f7ec93e97ba4b307be84428c98b0a12f3342868686866040516100fc96959493929190610640565b60405180910390a150505050565b600080606080858581019061011f9190610329565b809450819550829650839750505050507f805721bc246bccc732581be0c0aa2dd8f7ec93e97ba4b307be84428c98b0a12f324286868686604051610168969594939291906106c2565b60405180910390a1505050505050565b60006002905090565b60607f805721bc246bccc732581be0c0aa2dd8f7ec93e97ba4b307be84428c98b0a12f33428560008087876040516101bf97969594939291906105bc565b60405180910390a1505050565b60006101df6101da84610784565b61075f565b905080838252602082019050828560208602820111156101fe57600080fd5b60005b8581101561022e578161021488826102a0565b845260208401935060208301925050600181019050610201565b5050509392505050565b600061024b610246846107b0565b61075f565b90508281526020810184848401111561026357600080fd5b61026e8482856108ad565b509392505050565b600082601f83011261028757600080fd5b81356102978482602086016101cc565b91505092915050565b6000813590506102af816109bf565b92915050565b60008083601f8401126102c757600080fd5b8235905067ffffffffffffffff8111156102e057600080fd5b6020830191508360018202830111156102f857600080fd5b9250929050565b600082601f83011261031057600080fd5b8135610320848260208601610238565b91505092915050565b6000806000806080858703121561033f57600080fd5b600061034d878288016102a0565b945050602061035e878288016102a0565b935050604085013567ffffffffffffffff81111561037b57600080fd5b610387878288016102ff565b925050606085013567ffffffffffffffff8111156103a457600080fd5b6103b087828801610276565b91505092959194509250565b600080602083850312156103cf57600080fd5b600083013567ffffffffffffffff8111156103e957600080fd5b6103f5858286016102b5565b92509250509250929050565b6000806040838503121561041457600080fd5b600083013567ffffffffffffffff81111561042e57600080fd5b61043a858286016102ff565b925050602083013567ffffffffffffffff81111561045757600080fd5b610463858286016102ff565b9150509250929050565b600061047983836104f2565b60208301905092915050565b61048e81610836565b82525050565b600061049f826107f1565b6104a98185610814565b93506104b4836107e1565b8060005b838110156104e55781516104cc888261046d565b97506104d783610807565b9250506001810190506104b8565b5085935050505092915050565b6104fb81610848565b82525050565b61050a81610848565b82525050565b61051981610893565b82525050565b600061052a826107fc565b6105348185610825565b93506105448185602086016108bc565b61054d8161094f565b840191505092915050565b6000610565601183610825565b91506105708261096d565b602082019050919050565b6000610588601b83610825565b915061059382610996565b602082019050919050565b6105a78161087c565b82525050565b6105b681610886565b82525050565b600060e0820190506105d1600083018a610485565b6105de602083018961059e565b81810360408301526105f0818861051f565b90506105ff6060830187610510565b61060c6080830186610510565b81810360a083015261061e818561051f565b905081810360c08301526106328184610494565b905098975050505050505050565b600060e0820190506106556000830189610485565b610662602083018861059e565b818103604083015261067381610558565b90506106826060830187610501565b61068f6080830186610501565b81810360a08301526106a1818561051f565b905081810360c08301526106b58184610494565b9050979650505050505050565b600060e0820190506106d76000830189610485565b6106e4602083018861059e565b81810360408301526106f58161057b565b90506107046060830187610501565b6107116080830186610501565b81810360a0830152610723818561051f565b905081810360c08301526107378184610494565b9050979650505050505050565b600060208201905061075960008301846105ad565b92915050565b600061076961077a565b905061077582826108ef565b919050565b6000604051905090565b600067ffffffffffffffff82111561079f5761079e610920565b5b602082029050602081019050919050565b600067ffffffffffffffff8211156107cb576107ca610920565b5b6107d48261094f565b9050602081019050919050565b6000819050602082019050919050565b600081519050919050565b600081519050919050565b6000602082019050919050565b600082825260208201905092915050565b600082825260208201905092915050565b60006108418261085c565b9050919050565b6000819050919050565b6000819050919050565b600073ffffffffffffffffffffffffffffffffffffffff82169050919050565b6000819050919050565b600060ff82169050919050565b60006108a66108a183610852565b610960565b9050919050565b82818337600083830152505050565b60005b838110156108da5780820151818401526020810190506108bf565b838111156108e9576000848401525b50505050565b6108f88261094f565b810181811067ffffffffffffffff8211171561091757610916610920565b5b80604052505050565b7f4e487b7100000000000000000000000000000000000000000000000000000000600052604160045260246000fd5b6000601f19601f8301169050919050565b60008160001b9050919050565b7f66697265666c793a62617463685f70696e000000000000000000000000000000600082015250565b7f66697265666c793a636f6e74726163745f696e766f6b655f70696e0000000000600082015250565b6109c881610848565b81146109d357600080fd5b5056fea2646970667358221220fd9631013286db3ffec745e9f85d0676a51d89e8dae07b35e2ad94c3f1d0604a64736f6c63430008040033",
  "linkReferences": {},
  "deployedLinkReferences": {}
}