{
  "_format": "hh-sol-artifact-1",
  "contractName": "Firefly",
  "sourceName": "contracts/Firefly.sol",
  "abi": [
    {
      "anonymous": false,
      "inputs": [
        {
          "indexed": false,
          "internalType": "address",
          "name": "author",
          "type": "address"
        },
        {
          "indexed": false,
          "internalType": "uint256",
          "name": "timestamp",
          "type": "uint256"
        },
        {
          "indexed": false,
          "internalType": "string",
          "name": "action",
          "type": "string"
        },
        {
          "indexed": false,
          "internalType": "bytes32",
          "name": "uuids",
          "type": "bytes32"
        },
        {
          "indexed": false,
          "internalType": "bytes32",
          "name": "batchHash",
          "type": "bytes32"
        },
        {
          "indexed": false,
          "internalType": "string",
          "name": "payloadRef",
          "type": "string"
        },
        {
          "indexed": false,
          "internalType": "bytes32[]",
          "name": "contexts",
          "type": "bytes32[]"
        }
      ],
      "name": "BatchPin",
      "type": "event"
    },
    {
      "inputs": [
        {
          "internalType": "string",
          "name": "action",
          "type": "string"
        },
        {
          "internalType": "string",
          "name": "payload",
          "type": "string"
        }
      ],
      "name": "networkAction",
      "outputs": [],
      "stateMutability": "nonpayable",
      "type": "function"
    },
    {
      "inputs": [],
      "name": "networkVersion",
      "outputs": [
        {
          "internalType": "uint8",
          "name": "",
          "type": "uint8"
        }
      ],
      "stateMutability": "pure",
      "type": "function"
    },
    {
      "inputs": [
        {
          "internalType": "bytes32",
          "name": "uuids",
          "type": "bytes32"
        },
        {
          "internalType": "bytes32",
          "name": "batchHash",
          "type": "bytes32"
        },
        {
          "internalType": "string",
          "name": "payloadRef",
          "type": "string"
        },
        {
          "internalType": "bytes32[]",
          "name": "contexts",
          "type": "bytes32[]"
        }
      ],
      "name": "pinBatch",
      "outputs": [],
      "stateMutability": "nonpayable",
      "type": "function"
    }
  ],
  "bytecode": "0x608060405234801561001057600080fd5b506107f4806100206000396000f3fe608060405234801561001057600080fd5b50600436106100415760003560e01c806348ce1dcc1461004657806397eacfe614610062578063fb9066c114610080575b600080fd5b610060600480360381019061005b919061024a565b61009c565b005b61006a6100e3565b604051610077919061057b565b60405180910390f35b61009a600480360381019061009591906102dd565b6100ec565b005b7f805721bc246bccc732581be0c0aa2dd8f7ec93e97ba4b307be84428c98b0a12f3342868686866040516100d5969594939291906104f9565b60405180910390a150505050565b60006002905090565b60607f805721bc246bccc732581be0c0aa2dd8f7ec93e97ba4b307be84428c98b0a12f334285600080878760405161012a9796959493929190610475565b60405180910390a1505050565b600061014a610145846105bb565b610596565b9050808382526020820190508285602086028201111561016957600080fd5b60005b85811015610199578161017f888261020b565b84526020840193506020830192505060018101905061016c565b5050509392505050565b60006101b66101b1846105e7565b610596565b9050828152602081018484840111156101ce57600080fd5b6101d98482856106e4565b509392505050565b600082601f8301126101f257600080fd5b8135610202848260208601610137565b91505092915050565b60008135905061021a816107a7565b92915050565b600082601f83011261023157600080fd5b81356102418482602086016101a3565b91505092915050565b6000806000806080858703121561026057600080fd5b600061026e8782880161020b565b945050602061027f8782880161020b565b935050604085013567ffffffffffffffff81111561029c57600080fd5b6102a887828801610220565b925050606085013567ffffffffffffffff8111156102c557600080fd5b6102d1878288016101e1565b91505092959194509250565b600080604083850312156102f057600080fd5b600083013567ffffffffffffffff81111561030a57600080fd5b61031685828601610220565b925050602083013567ffffffffffffffff81111561033357600080fd5b61033f85828601610220565b9150509250929050565b600061035583836103ce565b60208301905092915050565b61036a8161066d565b82525050565b600061037b82610628565b610385818561064b565b935061039083610618565b8060005b838110156103c15781516103a88882610349565b97506103b38361063e565b925050600181019050610394565b5085935050505092915050565b6103d78161067f565b82525050565b6103e68161067f565b82525050565b6103f5816106ca565b82525050565b600061040682610633565b610410818561065c565b93506104208185602086016106f3565b61042981610786565b840191505092915050565b600061044160008361065c565b915061044c826107a4565b600082019050919050565b610460816106b3565b82525050565b61046f816106bd565b82525050565b600060e08201905061048a600083018a610361565b6104976020830189610457565b81810360408301526104a981886103fb565b90506104b860608301876103ec565b6104c560808301866103ec565b81810360a08301526104d781856103fb565b905081810360c08301526104eb8184610370565b905098975050505050505050565b600060e08201905061050e6000830189610361565b61051b6020830188610457565b818103604083015261052c81610434565b905061053b60608301876103dd565b61054860808301866103dd565b81810360a083015261055a81856103fb565b905081810360c083015261056e8184610370565b9050979650505050505050565b60006020820190506105906000830184610466565b92915050565b60006105a06105b1565b90506105ac8282610726565b919050565b6000604051905090565b600067ffffffffffffffff8211156105d6576105d5610757565b5b602082029050602081019050919050565b600067ffffffffffffffff82111561060257610601610757565b5b61060b82610786565b9050602081019050919050565b6000819050602082019050919050565b600081519050919050565b600081519050919050565b6000602082019050919050565b600082825260208201905092915050565b600082825260208201905092915050565b600061067882610693565b9050919050565b6000819050919050565b6000819050919050565b600073ffffffffffffffffffffffffffffffffffffffff82169050919050565b6000819050919050565b600060ff82169050919050565b60006106dd6106d883610689565b610797565b9050919050565b82818337600083830152505050565b60005b838110156107115780820151818401526020810190506106f6565b83811115610720576000848401525b50505050565b61072f82610786565b810181811067ffffffffffffffff8211171561074e5761074d610757565b5b80604052505050565b7f4e487b7100000000000000000000000000000000000000000000000000000000600052604160045260246000fd5b6000601f19601f8301169050919050565b60008160001b9050919050565b50565b6107b08161067f565b81146107bb57600080fd5b5056fea2646970667358221220a44450aaa7ba64c5bc6267debd3b45265c23dee5b8905a7ee88ca3d86721958a64736f6c63430008040033",
  "linkReferences": {},
  "deployedLinkReferences": {}
}