{
  "_format": "hh-sol-artifact-1",
  "contractName": "ERC1155MixedFungible",
  "sourceName": "contracts/ERC1155MixedFungible.sol",
  "abi": [
    {
      "inputs": [],
      "stateMutability": "nonpayable",
      "type": "constructor"
    },
    {
      "anonymous": false,
      "inputs": [
        {
          "indexed": true,
          "internalType": "address",
          "name": "account",
          "type": "address"
        },
        {
          "indexed": true,
          "internalType": "address",
          "name": "operator",
          "type": "address"
        },
        {
          "indexed": false,
          "internalType": "bool",
          "name": "approved",
          "type": "bool"
        }
      ],
      "name": "ApprovalForAll",
      "type": "event"
    },
    {
      "anonymous": false,
      "inputs": [
        {
          "indexed": true,
          "internalType": "address",
          "name": "operator",
          "type": "address"
        },
        {
          "indexed": true,
          "internalType": "uint256",
          "name": "type_id",
          "type": "uint256"
        },
        {
          "indexed": false,
          "internalType": "bytes",
          "name": "data",
          "type": "bytes"
        }
      ],
      "name": "TokenPoolCreation",
      "type": "event"
    },
    {
      "anonymous": false,
      "inputs": [
        {
          "indexed": true,
          "internalType": "address",
          "name": "operator",
          "type": "address"
        },
        {
          "indexed": true,
          "internalType": "address",
          "name": "from",
          "type": "address"
        },
        {
          "indexed": true,
          "internalType": "address",
          "name": "to",
          "type": "address"
        },
        {
          "indexed": false,
          "internalType": "uint256[]",
          "name": "ids",
          "type": "uint256[]"
        },
        {
          "indexed": false,
          "internalType": "uint256[]",
          "name": "values",
          "type": "uint256[]"
        }
      ],
      "name": "TransferBatch",
      "type": "event"
    },
    {
      "anonymous": false,
      "inputs": [
        {
          "indexed": true,
          "internalType": "address",
          "name": "operator",
          "type": "address"
        },
        {
          "indexed": true,
          "internalType": "address",
          "name": "from",
          "type": "address"
        },
        {
          "indexed": true,
          "internalType": "address",
          "name": "to",
          "type": "address"
        },
        {
          "indexed": false,
          "internalType": "uint256",
          "name": "id",
          "type": "uint256"
        },
        {
          "indexed": false,
          "internalType": "uint256",
          "name": "value",
          "type": "uint256"
        }
      ],
      "name": "TransferSingle",
      "type": "event"
    },
    {
      "anonymous": false,
      "inputs": [
        {
          "indexed": false,
          "internalType": "string",
          "name": "value",
          "type": "string"
        },
        {
          "indexed": true,
          "internalType": "uint256",
          "name": "id",
          "type": "uint256"
        }
      ],
      "name": "URI",
      "type": "event"
    },
    {
      "inputs": [
        {
          "internalType": "address",
          "name": "account",
          "type": "address"
        },
        {
          "internalType": "uint256",
          "name": "id",
          "type": "uint256"
        }
      ],
      "name": "balanceOf",
      "outputs": [
        {
          "internalType": "uint256",
          "name": "",
          "type": "uint256"
        }
      ],
      "stateMutability": "view",
      "type": "function"
    },
    {
      "inputs": [
        {
          "internalType": "address[]",
          "name": "accounts",
          "type": "address[]"
        },
        {
          "internalType": "uint256[]",
          "name": "ids",
          "type": "uint256[]"
        }
      ],
      "name": "balanceOfBatch",
      "outputs": [
        {
          "internalType": "uint256[]",
          "name": "",
          "type": "uint256[]"
        }
      ],
      "stateMutability": "view",
      "type": "function"
    },
    {
      "inputs": [
        {
          "internalType": "address",
          "name": "account",
          "type": "address"
        },
        {
          "internalType": "uint256",
          "name": "id",
          "type": "uint256"
        },
        {
          "internalType": "uint256",
          "name": "value",
          "type": "uint256"
        }
      ],
      "name": "burn",
      "outputs": [],
      "stateMutability": "nonpayable",
      "type": "function"
    },
    {
      "inputs": [
        {
          "internalType": "address",
          "name": "account",
          "type": "address"
        },
        {
          "internalType": "uint256[]",
          "name": "ids",
          "type": "uint256[]"
        },
        {
          "internalType": "uint256[]",
          "name": "values",
          "type": "uint256[]"
        }
      ],
      "name": "burnBatch",
      "outputs": [],
      "stateMutability": "nonpayable",
      "type": "function"
    },
    {
      "inputs": [
        {
          "internalType": "bool",
          "name": "is_fungible",
          "type": "bool"
        },
        {
          "internalType": "bytes",
          "name": "data",
          "type": "bytes"
        }
      ],
      "name": "create",
      "outputs": [
        {
          "internalType": "uint256",
          "name": "type_id",
          "type": "uint256"
        }
      ],
      "stateMutability": "nonpayable",
      "type": "function"
    },
    {
      "inputs": [
        {
          "internalType": "uint256",
          "name": "",
          "type": "uint256"
        }
      ],
      "name": "creators",
      "outputs": [
        {
          "internalType": "address",
          "name": "",
          "type": "address"
        }
      ],
      "stateMutability": "view",
      "type": "function"
    },
    {
      "inputs": [
        {
          "internalType": "address",
          "name": "account",
          "type": "address"
        },
        {
          "internalType": "address",
          "name": "operator",
          "type": "address"
        }
      ],
      "name": "isApprovedForAll",
      "outputs": [
        {
          "internalType": "bool",
          "name": "",
          "type": "bool"
        }
      ],
      "stateMutability": "view",
      "type": "function"
    },
    {
      "inputs": [
        {
          "internalType": "uint256",
          "name": "",
          "type": "uint256"
        }
      ],
      "name": "maxIndex",
      "outputs": [
        {
          "internalType": "uint256",
          "name": "",
          "type": "uint256"
        }
      ],
      "stateMutability": "view",
      "type": "function"
    },
    {
      "inputs": [
        {
          "internalType": "uint256",
          "name": "type_id",
          "type": "uint256"
        },
        {
          "internalType": "address[]",
          "name": "to",
          "type": "address[]"
        },
        {
          "internalType": "uint256[]",
          "name": "amounts",
          "type": "uint256[]"
        },
        {
          "internalType": "bytes",
          "name": "data",
          "type": "bytes"
        }
      ],
      "name": "mintFungible",
      "outputs": [],
      "stateMutability": "nonpayable",
      "type": "function"
    },
    {
      "inputs": [
        {
          "internalType": "uint256",
          "name": "type_id",
          "type": "uint256"
        },
        {
          "internalType": "address[]",
          "name": "to",
          "type": "address[]"
        },
        {
          "internalType": "bytes",
          "name": "data",
          "type": "bytes"
        }
      ],
      "name": "mintNonFungible",
      "outputs": [],
      "stateMutability": "nonpayable",
      "type": "function"
    },
    {
      "inputs": [
        {
          "internalType": "uint256",
          "name": "type_id",
          "type": "uint256"
        },
        {
          "internalType": "address[]",
          "name": "to",
          "type": "address[]"
        },
        {
          "internalType": "bytes",
          "name": "data",
          "type": "bytes"
        },
        {
          "internalType": "string",
          "name": "_uri",
          "type": "string"
        }
      ],
      "name": "mintNonFungibleWithURI",
      "outputs": [],
      "stateMutability": "nonpayable",
      "type": "function"
    },
    {
      "inputs": [
        {
          "internalType": "address",
          "name": "from",
          "type": "address"
        },
        {
          "internalType": "address",
          "name": "to",
          "type": "address"
        },
        {
          "internalType": "uint256[]",
          "name": "ids",
          "type": "uint256[]"
        },
        {
          "internalType": "uint256[]",
          "name": "amounts",
          "type": "uint256[]"
        },
        {
          "internalType": "bytes",
          "name": "data",
          "type": "bytes"
        }
      ],
      "name": "safeBatchTransferFrom",
      "outputs": [],
      "stateMutability": "nonpayable",
      "type": "function"
    },
    {
      "inputs": [
        {
          "internalType": "address",
          "name": "from",
          "type": "address"
        },
        {
          "internalType": "address",
          "name": "to",
          "type": "address"
        },
        {
          "internalType": "uint256",
          "name": "id",
          "type": "uint256"
        },
        {
          "internalType": "uint256",
          "name": "amount",
          "type": "uint256"
        },
        {
          "internalType": "bytes",
          "name": "data",
          "type": "bytes"
        }
      ],
      "name": "safeTransferFrom",
      "outputs": [],
      "stateMutability": "nonpayable",
      "type": "function"
    },
    {
      "inputs": [
        {
          "internalType": "address",
          "name": "operator",
          "type": "address"
        },
        {
          "internalType": "bool",
          "name": "approved",
          "type": "bool"
        }
      ],
      "name": "setApprovalForAll",
      "outputs": [],
      "stateMutability": "nonpayable",
      "type": "function"
    },
    {
      "inputs": [
        {
          "internalType": "address",
          "name": "operator",
          "type": "address"
        },
        {
          "internalType": "bool",
          "name": "approved",
          "type": "bool"
        },
        {
          "internalType": "bytes",
          "name": "data",
          "type": "bytes"
        }
      ],
      "name": "setApprovalForAllWithData",
      "outputs": [],
      "stateMutability": "nonpayable",
      "type": "function"
    },
    {
      "inputs": [
        {
          "internalType": "bytes4",
          "name": "interfaceId",
          "type": "bytes4"
        }
      ],
      "name": "supportsInterface",
      "outputs": [
        {
          "internalType": "bool",
          "name": "",
          "type": "bool"
        }
      ],
      "stateMutability": "view",
      "type": "function"
    },
    {
      "inputs": [
        {
          "internalType": "uint256",
          "name": "id",
          "type": "uint256"
        }
      ],
      "name": "uri",
      "outputs": [
        {
          "internalType": "string",
          "name": "",
          "type": "string"
        }
      ],
      "stateMutability": "view",
      "type": "function"
    }
  ],
  "bytecode": "0x60806040523480156200001157600080fd5b506040518060200160405280600081525062000033816200003a60201b60201c565b506200016b565b80600290805190602001906200005292919062000056565b5050565b828054620000649062000106565b90600052602060002090601f016020900481019282620000885760008555620000d4565b82601f10620000a357805160ff1916838001178555620000d4565b82800160010185558215620000d4579182015b82811115620000d3578251825591602001919060010190620000b6565b5b509050620000e39190620000e7565b5090565b5b8082111562000102576000816000905550600101620000e8565b5090565b600060028204905060018216806200011f57607f821691505b602082108114156200013657620001356200013c565b5b50919050565b7f4e487b7100000000000000000000000000000000000000000000000000000000600052602260045260246000fd5b614312806200017b6000396000f3fe608060405234801561001057600080fd5b506004361061010a5760003560e01c806354dbdbf4116100a2578063a22cb46511610071578063a22cb465146102d7578063cd53d08e146102f3578063e985e9c514610323578063f242432a14610353578063f5298aca1461036f5761010a565b806354dbdbf4146102535780636b20c4541461026f57806371cc16561461028b5780637e53b65d146102bb5761010a565b8063183fb254116100de578063183fb254146101cf5780631cbf311d146101eb5780632eb2c2d6146102075780634e1273f4146102235761010a565b8062fdd58e1461010f57806301ffc9a71461013f57806308d7d4691461016f5780630e89341c1461019f575b600080fd5b61012960048036038101906101249190612e0a565b61038b565b60405161013691906138e1565b60405180910390f35b61015960048036038101906101549190612f59565b610454565b6040516101669190613680565b60405180910390f35b61018960048036038101906101849190612fab565b610536565b60405161019691906138e1565b60405180910390f35b6101b960048036038101906101b49190612fab565b61054e565b6040516101c691906136bf565b60405180910390f35b6101e960048036038101906101e49190612fd4565b610623565b005b61020560048036038101906102009190612d9e565b61082c565b005b610221600480360381019061021c9190612b95565b61083c565b005b61023d60048036038101906102389190612e95565b6108dd565b60405161024a9190613627565b60405180910390f35b61026d6004803603810190610268919061308d565b610a8e565b005b61028960048036038101906102849190612ce3565b610c78565b005b6102a560048036038101906102a09190612f01565b610d15565b6040516102b291906138e1565b60405180910390f35b6102d560048036038101906102d09190613116565b610e15565b005b6102f160048036038101906102ec9190612d62565b611011565b005b61030d60048036038101906103089190612fab565b611027565b60405161031a919061354a565b60405180910390f35b61033d60048036038101906103389190612b59565b61105a565b60405161034a9190613680565b60405180910390f35b61036d60048036038101906103689190612c54565b6110ee565b005b61038960048036038101906103849190612e46565b61118f565b005b60008073ffffffffffffffffffffffffffffffffffffffff168373ffffffffffffffffffffffffffffffffffffffff1614156103fc576040517f08c379a00000000000000000000000000000000000000000000000000000000081526004016103f390613721565b60405180910390fd5b60008083815260200190815260200160002060008473ffffffffffffffffffffffffffffffffffffffff1673ffffffffffffffffffffffffffffffffffffffff16815260200190815260200160002054905092915050565b60007fd9b67a26000000000000000000000000000000000000000000000000000000007bffffffffffffffffffffffffffffffffffffffffffffffffffffffff1916827bffffffffffffffffffffffffffffffffffffffffffffffffffffffff1916148061051f57507f0e89341c000000000000000000000000000000000000000000000000000000007bffffffffffffffffffffffffffffffffffffffffffffffffffffffff1916827bffffffffffffffffffffffffffffffffffffffffffffffffffffffff1916145b8061052f575061052e8261122c565b5b9050919050565b60056020528060005260406000206000915090505481565b6060600060066000848152602001908152602001600020805461057090613b81565b80601f016020809104026020016040519081016040528092919081815260200182805461059c90613b81565b80156105e95780601f106105be576101008083540402835291602001916105e9565b820191906000526020600020905b8154815290600101906020018083116105cc57829003601f168201915b50505050509050600081905060008151141561061857604051806020016040528060008152509250505061061e565b81925050505b919050565b8661062c611296565b73ffffffffffffffffffffffffffffffffffffffff166004600083815260200190815260200160002060009054906101000a900473ffffffffffffffffffffffffffffffffffffffff1673ffffffffffffffffffffffffffffffffffffffff161461069657600080fd5b61069f8861129e565b6106de576040517f08c379a00000000000000000000000000000000000000000000000000000000081526004016106d5906137a1565b60405180910390fd5b848490508787905014610726576040517f08c379a000000000000000000000000000000000000000000000000000000000815260040161071d90613801565b60405180910390fd5b60005b8787905081101561082157610810888883818110610770577f4e487b7100000000000000000000000000000000000000000000000000000000600052603260045260246000fd5b90506020020160208101906107859190612b30565b8a8888858181106107bf577f4e487b7100000000000000000000000000000000000000000000000000000000600052603260045260246000fd5b9050602002013587878080601f016020809104026020016040519081016040528093929190818152602001838380828437600081840152601f19601f820116905080830192505050505050506112cc565b8061081a90613be4565b9050610729565b505050505050505050565b6108368484611011565b50505050565b610844611296565b73ffffffffffffffffffffffffffffffffffffffff168573ffffffffffffffffffffffffffffffffffffffff16148061088a575061088985610884611296565b61105a565b5b6108c9576040517f08c379a00000000000000000000000000000000000000000000000000000000081526004016108c0906137e1565b60405180910390fd5b6108d6858585858561147d565b5050505050565b60608151835114610923576040517f08c379a000000000000000000000000000000000000000000000000000000000815260040161091a90613881565b60405180910390fd5b6000835167ffffffffffffffff811115610966577f4e487b7100000000000000000000000000000000000000000000000000000000600052604160045260246000fd5b6040519080825280602002602001820160405280156109945781602001602082028036833780820191505090505b50905060005b8451811015610a8357610a2d8582815181106109df577f4e487b7100000000000000000000000000000000000000000000000000000000600052603260045260246000fd5b6020026020010151858381518110610a20577f4e487b7100000000000000000000000000000000000000000000000000000000600052603260045260246000fd5b602002602001015161038b565b828281518110610a66577f4e487b7100000000000000000000000000000000000000000000000000000000600052603260045260246000fd5b60200260200101818152505080610a7c90613be4565b905061099a565b508091505092915050565b84610a97611296565b73ffffffffffffffffffffffffffffffffffffffff166004600083815260200190815260200160002060009054906101000a900473ffffffffffffffffffffffffffffffffffffffff1673ffffffffffffffffffffffffffffffffffffffff1614610b0157600080fd5b610b0a866117eb565b610b49576040517f08c379a0000000000000000000000000000000000000000000000000000000008152600401610b4090613781565b60405180910390fd5b600060016005600089815260200190815260200160002054610b6b9190613a75565b9050610b8d86869050600560008a815260200190815260200160002054611819565b600560008981526020019081526020016000208190555060005b86869050811015610c6e57610c5d878783818110610bee577f4e487b7100000000000000000000000000000000000000000000000000000000600052603260045260246000fd5b9050602002016020810190610c039190612b30565b8284610c0f9190613a75565b8a17600188888080601f016020809104026020016040519081016040528093929190818152602001838380828437600081840152601f19601f820116905080830192505050505050506112cc565b80610c6790613be4565b9050610ba7565b5050505050505050565b610c80611296565b73ffffffffffffffffffffffffffffffffffffffff168373ffffffffffffffffffffffffffffffffffffffff161480610cc65750610cc583610cc0611296565b61105a565b5b610d05576040517f08c379a0000000000000000000000000000000000000000000000000000000008152600401610cfc90613761565b60405180910390fd5b610d1083838361182f565b505050565b60006080600360008154610d2890613be4565b919050819055901b905083610d5d577f8000000000000000000000000000000000000000000000000000000000000000811790505b610d65611296565b6004600083815260200190815260200160002060006101000a81548173ffffffffffffffffffffffffffffffffffffffff021916908373ffffffffffffffffffffffffffffffffffffffff16021790555080610dbf611296565b73ffffffffffffffffffffffffffffffffffffffff167f0d2ce24070e07853454690ae0a0416ddd4845188f8dbfe0ef3a761acb3d2e34e8585604051610e0692919061369b565b60405180910390a39392505050565b85610e1e611296565b73ffffffffffffffffffffffffffffffffffffffff166004600083815260200190815260200160002060009054906101000a900473ffffffffffffffffffffffffffffffffffffffff1673ffffffffffffffffffffffffffffffffffffffff1614610e8857600080fd5b610e91876117eb565b610ed0576040517f08c379a0000000000000000000000000000000000000000000000000000000008152600401610ec790613781565b60405180910390fd5b60006001600560008a815260200190815260200160002054610ef29190613a75565b9050610f1487879050600560008b815260200190815260200160002054611819565b600560008a81526020019081526020016000208190555060005b878790508110156110065760008183610f479190613a75565b8a179050610fe9898984818110610f87577f4e487b7100000000000000000000000000000000000000000000000000000000600052603260045260246000fd5b9050602002016020810190610f9c9190612b30565b8260018a8a8080601f016020809104026020016040519081016040528093929190818152602001838380828437600081840152601f19601f820116905080830192505050505050506112cc565b610ff48a8287611b4a565b5080610fff90613be4565b9050610f2e565b505050505050505050565b61102361101c611296565b8383611c33565b5050565b60046020528060005260406000206000915054906101000a900473ffffffffffffffffffffffffffffffffffffffff1681565b6000600160008473ffffffffffffffffffffffffffffffffffffffff1673ffffffffffffffffffffffffffffffffffffffff16815260200190815260200160002060008373ffffffffffffffffffffffffffffffffffffffff1673ffffffffffffffffffffffffffffffffffffffff16815260200190815260200160002060009054906101000a900460ff16905092915050565b6110f6611296565b73ffffffffffffffffffffffffffffffffffffffff168573ffffffffffffffffffffffffffffffffffffffff16148061113c575061113b85611136611296565b61105a565b5b61117b576040517f08c379a000000000000000000000000000000000000000000000000000000000815260040161117290613761565b60405180910390fd5b6111888585858585611da0565b5050505050565b611197611296565b73ffffffffffffffffffffffffffffffffffffffff168373ffffffffffffffffffffffffffffffffffffffff1614806111dd57506111dc836111d7611296565b61105a565b5b61121c576040517f08c379a000000000000000000000000000000000000000000000000000000000815260040161121390613761565b60405180910390fd5b61122783838361203c565b505050565b60007f01ffc9a7000000000000000000000000000000000000000000000000000000007bffffffffffffffffffffffffffffffffffffffffffffffffffffffff1916827bffffffffffffffffffffffffffffffffffffffffffffffffffffffff1916149050919050565b600033905090565b6000807f80000000000000000000000000000000000000000000000000000000000000008316149050919050565b600073ffffffffffffffffffffffffffffffffffffffff168473ffffffffffffffffffffffffffffffffffffffff16141561133c576040517f08c379a0000000000000000000000000000000000000000000000000000000008152600401611333906138c1565b60405180910390fd5b6000611346611296565b9050600061135385612283565b9050600061136085612283565b905061137183600089858589612349565b8460008088815260200190815260200160002060008973ffffffffffffffffffffffffffffffffffffffff1673ffffffffffffffffffffffffffffffffffffffff16815260200190815260200160002060008282546113d09190613a75565b925050819055508673ffffffffffffffffffffffffffffffffffffffff16600073ffffffffffffffffffffffffffffffffffffffff168473ffffffffffffffffffffffffffffffffffffffff167fc3d58168c5ae7397731d063d5bbf3d657854427343f4c083240f7aacaa2d0f62898960405161144e9291906138fc565b60405180910390a461146583600089858589612351565b61147483600089898989612359565b50505050505050565b81518351146114c1576040517f08c379a00000000000000000000000000000000000000000000000000000000081526004016114b8906138a1565b60405180910390fd5b600073ffffffffffffffffffffffffffffffffffffffff168473ffffffffffffffffffffffffffffffffffffffff161415611531576040517f08c379a0000000000000000000000000000000000000000000000000000000008152600401611528906137c1565b60405180910390fd5b600061153b611296565b905061154b818787878787612349565b60005b8451811015611748576000858281518110611592577f4e487b7100000000000000000000000000000000000000000000000000000000600052603260045260246000fd5b6020026020010151905060008583815181106115d7577f4e487b7100000000000000000000000000000000000000000000000000000000600052603260045260246000fd5b60200260200101519050600080600084815260200190815260200160002060008b73ffffffffffffffffffffffffffffffffffffffff1673ffffffffffffffffffffffffffffffffffffffff16815260200190815260200160002054905081811015611678576040517f08c379a000000000000000000000000000000000000000000000000000000000815260040161166f90613841565b60405180910390fd5b81810360008085815260200190815260200160002060008c73ffffffffffffffffffffffffffffffffffffffff1673ffffffffffffffffffffffffffffffffffffffff168152602001908152602001600020819055508160008085815260200190815260200160002060008b73ffffffffffffffffffffffffffffffffffffffff1673ffffffffffffffffffffffffffffffffffffffff168152602001908152602001600020600082825461172d9190613a75565b925050819055505050508061174190613be4565b905061154e565b508473ffffffffffffffffffffffffffffffffffffffff168673ffffffffffffffffffffffffffffffffffffffff168273ffffffffffffffffffffffffffffffffffffffff167f4a39dc06d4c0dbc64b70af90fd698a233a518aa5d07e595d983b8c0526c8f7fb87876040516117bf929190613649565b60405180910390a46117d5818787878787612351565b6117e3818787878787612540565b505050505050565b60007f8000000000000000000000000000000000000000000000000000000000000000808316149050919050565b600081836118279190613a75565b905092915050565b600073ffffffffffffffffffffffffffffffffffffffff168373ffffffffffffffffffffffffffffffffffffffff16141561189f576040517f08c379a000000000000000000000000000000000000000000000000000000000815260040161189690613821565b60405180910390fd5b80518251146118e3576040517f08c379a00000000000000000000000000000000000000000000000000000000081526004016118da906138a1565b60405180910390fd5b60006118ed611296565b905061190d81856000868660405180602001604052806000815250612349565b60005b8351811015611aa6576000848281518110611954577f4e487b7100000000000000000000000000000000000000000000000000000000600052603260045260246000fd5b602002602001015190506000848381518110611999577f4e487b7100000000000000000000000000000000000000000000000000000000600052603260045260246000fd5b60200260200101519050600080600084815260200190815260200160002060008973ffffffffffffffffffffffffffffffffffffffff1673ffffffffffffffffffffffffffffffffffffffff16815260200190815260200160002054905081811015611a3a576040517f08c379a0000000000000000000000000000000000000000000000000000000008152600401611a3190613741565b60405180910390fd5b81810360008085815260200190815260200160002060008a73ffffffffffffffffffffffffffffffffffffffff1673ffffffffffffffffffffffffffffffffffffffff168152602001908152602001600020819055505050508080611a9e90613be4565b915050611910565b50600073ffffffffffffffffffffffffffffffffffffffff168473ffffffffffffffffffffffffffffffffffffffff168273ffffffffffffffffffffffffffffffffffffffff167f4a39dc06d4c0dbc64b70af90fd698a233a518aa5d07e595d983b8c0526c8f7fb8686604051611b1e929190613649565b60405180910390a4611b4481856000868660405180602001604052806000815250612351565b50505050565b82611b53611296565b73ffffffffffffffffffffffffffffffffffffffff166004600083815260200190815260200160002060009054906101000a900473ffffffffffffffffffffffffffffffffffffffff1673ffffffffffffffffffffffffffffffffffffffff1614611bbd57600080fd5b611bc6846117eb565b611c05576040517f08c379a0000000000000000000000000000000000000000000000000000000008152600401611bfc90613781565b60405180910390fd5b81600660008581526020019081526020016000209080519060200190611c2c92919061274a565b5050505050565b8173ffffffffffffffffffffffffffffffffffffffff168373ffffffffffffffffffffffffffffffffffffffff161415611ca2576040517f08c379a0000000000000000000000000000000000000000000000000000000008152600401611c9990613861565b60405180910390fd5b80600160008573ffffffffffffffffffffffffffffffffffffffff1673ffffffffffffffffffffffffffffffffffffffff16815260200190815260200160002060008473ffffffffffffffffffffffffffffffffffffffff1673ffffffffffffffffffffffffffffffffffffffff16815260200190815260200160002060006101000a81548160ff0219169083151502179055508173ffffffffffffffffffffffffffffffffffffffff168373ffffffffffffffffffffffffffffffffffffffff167f17307eab39ab6107e8899845ad3d59bd9653f200f220920489ca2b5937696c3183604051611d939190613680565b60405180910390a3505050565b600073ffffffffffffffffffffffffffffffffffffffff168473ffffffffffffffffffffffffffffffffffffffff161415611e10576040517f08c379a0000000000000000000000000000000000000000000000000000000008152600401611e07906137c1565b60405180910390fd5b6000611e1a611296565b90506000611e2785612283565b90506000611e3485612283565b9050611e44838989858589612349565b600080600088815260200190815260200160002060008a73ffffffffffffffffffffffffffffffffffffffff1673ffffffffffffffffffffffffffffffffffffffff16815260200190815260200160002054905085811015611edb576040517f08c379a0000000000000000000000000000000000000000000000000000000008152600401611ed290613841565b60405180910390fd5b85810360008089815260200190815260200160002060008b73ffffffffffffffffffffffffffffffffffffffff1673ffffffffffffffffffffffffffffffffffffffff168152602001908152602001600020819055508560008089815260200190815260200160002060008a73ffffffffffffffffffffffffffffffffffffffff1673ffffffffffffffffffffffffffffffffffffffff1681526020019081526020016000206000828254611f909190613a75565b925050819055508773ffffffffffffffffffffffffffffffffffffffff168973ffffffffffffffffffffffffffffffffffffffff168573ffffffffffffffffffffffffffffffffffffffff167fc3d58168c5ae7397731d063d5bbf3d657854427343f4c083240f7aacaa2d0f628a8a60405161200d9291906138fc565b60405180910390a4612023848a8a86868a612351565b612031848a8a8a8a8a612359565b505050505050505050565b600073ffffffffffffffffffffffffffffffffffffffff168373ffffffffffffffffffffffffffffffffffffffff1614156120ac576040517f08c379a00000000000000000000000000000000000000000000000000000000081526004016120a390613821565b60405180910390fd5b60006120b6611296565b905060006120c384612283565b905060006120d084612283565b90506120f083876000858560405180602001604052806000815250612349565b600080600087815260200190815260200160002060008873ffffffffffffffffffffffffffffffffffffffff1673ffffffffffffffffffffffffffffffffffffffff16815260200190815260200160002054905084811015612187576040517f08c379a000000000000000000000000000000000000000000000000000000000815260040161217e90613741565b60405180910390fd5b84810360008088815260200190815260200160002060008973ffffffffffffffffffffffffffffffffffffffff1673ffffffffffffffffffffffffffffffffffffffff16815260200190815260200160002081905550600073ffffffffffffffffffffffffffffffffffffffff168773ffffffffffffffffffffffffffffffffffffffff168573ffffffffffffffffffffffffffffffffffffffff167fc3d58168c5ae7397731d063d5bbf3d657854427343f4c083240f7aacaa2d0f6289896040516122549291906138fc565b60405180910390a461227a84886000868660405180602001604052806000815250612351565b50505050505050565b60606000600167ffffffffffffffff8111156122c8577f4e487b7100000000000000000000000000000000000000000000000000000000600052604160045260246000fd5b6040519080825280602002602001820160405280156122f65781602001602082028036833780820191505090505b5090508281600081518110612334577f4e487b7100000000000000000000000000000000000000000000000000000000600052603260045260246000fd5b60200260200101818152505080915050919050565b505050505050565b505050505050565b6123788473ffffffffffffffffffffffffffffffffffffffff16612727565b15612538578373ffffffffffffffffffffffffffffffffffffffff1663f23a6e6187878686866040518663ffffffff1660e01b81526004016123be9594939291906135cd565b602060405180830381600087803b1580156123d857600080fd5b505af192505050801561240957506040513d601f19601f820116820180604052508101906124069190612f82565b60015b6124af57612415613cba565b806308c379a01415612472575061242a6141ea565b806124355750612474565b806040517f08c379a000000000000000000000000000000000000000000000000000000000815260040161246991906136bf565b60405180910390fd5b505b6040517f08c379a00000000000000000000000000000000000000000000000000000000081526004016124a6906136e1565b60405180910390fd5b63f23a6e6160e01b7bffffffffffffffffffffffffffffffffffffffffffffffffffffffff1916817bffffffffffffffffffffffffffffffffffffffffffffffffffffffff191614612536576040517f08c379a000000000000000000000000000000000000000000000000000000000815260040161252d90613701565b60405180910390fd5b505b505050505050565b61255f8473ffffffffffffffffffffffffffffffffffffffff16612727565b1561271f578373ffffffffffffffffffffffffffffffffffffffff1663bc197c8187878686866040518663ffffffff1660e01b81526004016125a5959493929190613565565b602060405180830381600087803b1580156125bf57600080fd5b505af19250505080156125f057506040513d601f19601f820116820180604052508101906125ed9190612f82565b60015b612696576125fc613cba565b806308c379a0141561265957506126116141ea565b8061261c575061265b565b806040517f08c379a000000000000000000000000000000000000000000000000000000000815260040161265091906136bf565b60405180910390fd5b505b6040517f08c379a000000000000000000000000000000000000000000000000000000000815260040161268d906136e1565b60405180910390fd5b63bc197c8160e01b7bffffffffffffffffffffffffffffffffffffffffffffffffffffffff1916817bffffffffffffffffffffffffffffffffffffffffffffffffffffffff19161461271d576040517f08c379a000000000000000000000000000000000000000000000000000000000815260040161271490613701565b60405180910390fd5b505b505050505050565b6000808273ffffffffffffffffffffffffffffffffffffffff163b119050919050565b82805461275690613b81565b90600052602060002090601f01602090048101928261277857600085556127bf565b82601f1061279157805160ff19168380011785556127bf565b828001600101855582156127bf579182015b828111156127be5782518255916020019190600101906127a3565b5b5090506127cc91906127d0565b5090565b5b808211156127e95760008160009055506001016127d1565b5090565b60006128006127fb8461394a565b613925565b9050808382526020820190508285602086028201111561281f57600080fd5b60005b8581101561284f57816128358882612941565b845260208401935060208301925050600181019050612822565b5050509392505050565b600061286c61286784613976565b613925565b9050808382526020820190508285602086028201111561288b57600080fd5b60005b858110156128bb57816128a18882612b1b565b84526020840193506020830192505060018101905061288e565b5050509392505050565b60006128d86128d3846139a2565b613925565b9050828152602081018484840111156128f057600080fd5b6128fb848285613b3f565b509392505050565b6000612916612911846139d3565b613925565b90508281526020810184848401111561292e57600080fd5b612939848285613b3f565b509392505050565b60008135905061295081614280565b92915050565b60008083601f84011261296857600080fd5b8235905067ffffffffffffffff81111561298157600080fd5b60208301915083602082028301111561299957600080fd5b9250929050565b600082601f8301126129b157600080fd5b81356129c18482602086016127ed565b91505092915050565b60008083601f8401126129dc57600080fd5b8235905067ffffffffffffffff8111156129f557600080fd5b602083019150836020820283011115612a0d57600080fd5b9250929050565b600082601f830112612a2557600080fd5b8135612a35848260208601612859565b91505092915050565b600081359050612a4d81614297565b92915050565b600081359050612a62816142ae565b92915050565b600081519050612a77816142ae565b92915050565b60008083601f840112612a8f57600080fd5b8235905067ffffffffffffffff811115612aa857600080fd5b602083019150836001820283011115612ac057600080fd5b9250929050565b600082601f830112612ad857600080fd5b8135612ae88482602086016128c5565b91505092915050565b600082601f830112612b0257600080fd5b8135612b12848260208601612903565b91505092915050565b600081359050612b2a816142c5565b92915050565b600060208284031215612b4257600080fd5b6000612b5084828501612941565b91505092915050565b60008060408385031215612b6c57600080fd5b6000612b7a85828601612941565b9250506020612b8b85828601612941565b9150509250929050565b600080600080600060a08688031215612bad57600080fd5b6000612bbb88828901612941565b9550506020612bcc88828901612941565b945050604086013567ffffffffffffffff811115612be957600080fd5b612bf588828901612a14565b935050606086013567ffffffffffffffff811115612c1257600080fd5b612c1e88828901612a14565b925050608086013567ffffffffffffffff811115612c3b57600080fd5b612c4788828901612ac7565b9150509295509295909350565b600080600080600060a08688031215612c6c57600080fd5b6000612c7a88828901612941565b9550506020612c8b88828901612941565b9450506040612c9c88828901612b1b565b9350506060612cad88828901612b1b565b925050608086013567ffffffffffffffff811115612cca57600080fd5b612cd688828901612ac7565b9150509295509295909350565b600080600060608486031215612cf857600080fd5b6000612d0686828701612941565b935050602084013567ffffffffffffffff811115612d2357600080fd5b612d2f86828701612a14565b925050604084013567ffffffffffffffff811115612d4c57600080fd5b612d5886828701612a14565b9150509250925092565b60008060408385031215612d7557600080fd5b6000612d8385828601612941565b9250506020612d9485828601612a3e565b9150509250929050565b60008060008060608587031215612db457600080fd5b6000612dc287828801612941565b9450506020612dd387828801612a3e565b935050604085013567ffffffffffffffff811115612df057600080fd5b612dfc87828801612a7d565b925092505092959194509250565b60008060408385031215612e1d57600080fd5b6000612e2b85828601612941565b9250506020612e3c85828601612b1b565b9150509250929050565b600080600060608486031215612e5b57600080fd5b6000612e6986828701612941565b9350506020612e7a86828701612b1b565b9250506040612e8b86828701612b1b565b9150509250925092565b60008060408385031215612ea857600080fd5b600083013567ffffffffffffffff811115612ec257600080fd5b612ece858286016129a0565b925050602083013567ffffffffffffffff811115612eeb57600080fd5b612ef785828601612a14565b9150509250929050565b600080600060408486031215612f1657600080fd5b6000612f2486828701612a3e565b935050602084013567ffffffffffffffff811115612f4157600080fd5b612f4d86828701612a7d565b92509250509250925092565b600060208284031215612f6b57600080fd5b6000612f7984828501612a53565b91505092915050565b600060208284031215612f9457600080fd5b6000612fa284828501612a68565b91505092915050565b600060208284031215612fbd57600080fd5b6000612fcb84828501612b1b565b91505092915050565b60008060008060008060006080888a031215612fef57600080fd5b6000612ffd8a828b01612b1b565b975050602088013567ffffffffffffffff81111561301a57600080fd5b6130268a828b01612956565b9650965050604088013567ffffffffffffffff81111561304557600080fd5b6130518a828b016129ca565b9450945050606088013567ffffffffffffffff81111561307057600080fd5b61307c8a828b01612a7d565b925092505092959891949750929550565b6000806000806000606086880312156130a557600080fd5b60006130b388828901612b1b565b955050602086013567ffffffffffffffff8111156130d057600080fd5b6130dc88828901612956565b9450945050604086013567ffffffffffffffff8111156130fb57600080fd5b61310788828901612a7d565b92509250509295509295909350565b6000806000806000806080878903121561312f57600080fd5b600061313d89828a01612b1b565b965050602087013567ffffffffffffffff81111561315a57600080fd5b61316689828a01612956565b9550955050604087013567ffffffffffffffff81111561318557600080fd5b61319189828a01612a7d565b9350935050606087013567ffffffffffffffff8111156131b057600080fd5b6131bc89828a01612af1565b9150509295509295509295565b60006131d5838361352c565b60208301905092915050565b6131ea81613acb565b82525050565b60006131fb82613a14565b6132058185613a42565b935061321083613a04565b8060005b8381101561324157815161322888826131c9565b975061323383613a35565b925050600181019050613214565b5085935050505092915050565b61325781613add565b82525050565b60006132698385613a53565b9350613276838584613b3f565b61327f83613cdc565b840190509392505050565b600061329582613a1f565b61329f8185613a53565b93506132af818560208601613b4e565b6132b881613cdc565b840191505092915050565b60006132ce82613a2a565b6132d88185613a64565b93506132e8818560208601613b4e565b6132f181613cdc565b840191505092915050565b6000613309603483613a64565b915061331482613cfa565b604082019050919050565b600061332c602883613a64565b915061333782613d49565b604082019050919050565b600061334f602b83613a64565b915061335a82613d98565b604082019050919050565b6000613372602483613a64565b915061337d82613de7565b604082019050919050565b6000613395602983613a64565b91506133a082613e36565b604082019050919050565b60006133b8603f83613a64565b91506133c382613e85565b604082019050919050565b60006133db603b83613a64565b91506133e682613ed4565b604082019050919050565b60006133fe602583613a64565b915061340982613f23565b604082019050919050565b6000613421603283613a64565b915061342c82613f72565b604082019050919050565b6000613444603483613a64565b915061344f82613fc1565b604082019050919050565b6000613467602383613a64565b915061347282614010565b604082019050919050565b600061348a602a83613a64565b91506134958261405f565b604082019050919050565b60006134ad602983613a64565b91506134b8826140ae565b604082019050919050565b60006134d0602983613a64565b91506134db826140fd565b604082019050919050565b60006134f3602883613a64565b91506134fe8261414c565b604082019050919050565b6000613516602183613a64565b91506135218261419b565b604082019050919050565b61353581613b35565b82525050565b61354481613b35565b82525050565b600060208201905061355f60008301846131e1565b92915050565b600060a08201905061357a60008301886131e1565b61358760208301876131e1565b818103604083015261359981866131f0565b905081810360608301526135ad81856131f0565b905081810360808301526135c1818461328a565b90509695505050505050565b600060a0820190506135e260008301886131e1565b6135ef60208301876131e1565b6135fc604083018661353b565b613609606083018561353b565b818103608083015261361b818461328a565b90509695505050505050565b6000602082019050818103600083015261364181846131f0565b905092915050565b6000604082019050818103600083015261366381856131f0565b9050818103602083015261367781846131f0565b90509392505050565b6000602082019050613695600083018461324e565b92915050565b600060208201905081810360008301526136b681848661325d565b90509392505050565b600060208201905081810360008301526136d981846132c3565b905092915050565b600060208201905081810360008301526136fa816132fc565b9050919050565b6000602082019050818103600083015261371a8161331f565b9050919050565b6000602082019050818103600083015261373a81613342565b9050919050565b6000602082019050818103600083015261375a81613365565b9050919050565b6000602082019050818103600083015261377a81613388565b9050919050565b6000602082019050818103600083015261379a816133ab565b9050919050565b600060208201905081810360008301526137ba816133ce565b9050919050565b600060208201905081810360008301526137da816133f1565b9050919050565b600060208201905081810360008301526137fa81613414565b9050919050565b6000602082019050818103600083015261381a81613437565b9050919050565b6000602082019050818103600083015261383a8161345a565b9050919050565b6000602082019050818103600083015261385a8161347d565b9050919050565b6000602082019050818103600083015261387a816134a0565b9050919050565b6000602082019050818103600083015261389a816134c3565b9050919050565b600060208201905081810360008301526138ba816134e6565b9050919050565b600060208201905081810360008301526138da81613509565b9050919050565b60006020820190506138f6600083018461353b565b92915050565b6000604082019050613911600083018561353b565b61391e602083018461353b565b9392505050565b600061392f613940565b905061393b8282613bb3565b919050565b6000604051905090565b600067ffffffffffffffff82111561396557613964613c8b565b5b602082029050602081019050919050565b600067ffffffffffffffff82111561399157613990613c8b565b5b602082029050602081019050919050565b600067ffffffffffffffff8211156139bd576139bc613c8b565b5b6139c682613cdc565b9050602081019050919050565b600067ffffffffffffffff8211156139ee576139ed613c8b565b5b6139f782613cdc565b9050602081019050919050565b6000819050602082019050919050565b600081519050919050565b600081519050919050565b600081519050919050565b6000602082019050919050565b600082825260208201905092915050565b600082825260208201905092915050565b600082825260208201905092915050565b6000613a8082613b35565b9150613a8b83613b35565b9250827fffffffffffffffffffffffffffffffffffffffffffffffffffffffffffffffff03821115613ac057613abf613c2d565b5b828201905092915050565b6000613ad682613b15565b9050919050565b60008115159050919050565b60007fffffffff0000000000000000000000000000000000000000000000000000000082169050919050565b600073ffffffffffffffffffffffffffffffffffffffff82169050919050565b6000819050919050565b82818337600083830152505050565b60005b83811015613b6c578082015181840152602081019050613b51565b83811115613b7b576000848401525b50505050565b60006002820490506001821680613b9957607f821691505b60208210811415613bad57613bac613c5c565b5b50919050565b613bbc82613cdc565b810181811067ffffffffffffffff82111715613bdb57613bda613c8b565b5b80604052505050565b6000613bef82613b35565b91507fffffffffffffffffffffffffffffffffffffffffffffffffffffffffffffffff821415613c2257613c21613c2d565b5b600182019050919050565b7f4e487b7100000000000000000000000000000000000000000000000000000000600052601160045260246000fd5b7f4e487b7100000000000000000000000000000000000000000000000000000000600052602260045260246000fd5b7f4e487b7100000000000000000000000000000000000000000000000000000000600052604160045260246000fd5b600060033d1115613cd95760046000803e613cd6600051613ced565b90505b90565b6000601f19601f8301169050919050565b60008160e01c9050919050565b7f455243313135353a207472616e7366657220746f206e6f6e204552433131353560008201527f526563656976657220696d706c656d656e746572000000000000000000000000602082015250565b7f455243313135353a204552433131353552656365697665722072656a6563746560008201527f6420746f6b656e73000000000000000000000000000000000000000000000000602082015250565b7f455243313135353a2062616c616e636520717565727920666f7220746865207a60008201527f65726f2061646472657373000000000000000000000000000000000000000000602082015250565b7f455243313135353a206275726e20616d6f756e7420657863656564732062616c60008201527f616e636500000000000000000000000000000000000000000000000000000000602082015250565b7f455243313135353a2063616c6c6572206973206e6f74206f776e6572206e6f7260008201527f20617070726f7665640000000000000000000000000000000000000000000000602082015250565b7f455243313135354d6978656446756e6769626c653a20696420646f6573206e6f60008201527f7420726570726573656e742061206e6f6e2d66756e6769626c65207479706500602082015250565b7f455243313135354d6978656446756e6769626c653a20696420646f6573206e6f60008201527f7420726570726573656e7420612066756e6769626c6520747970650000000000602082015250565b7f455243313135353a207472616e7366657220746f20746865207a65726f20616460008201527f6472657373000000000000000000000000000000000000000000000000000000602082015250565b7f455243313135353a207472616e736665722063616c6c6572206973206e6f742060008201527f6f776e6572206e6f7220617070726f7665640000000000000000000000000000602082015250565b7f455243313135354d6978656446756e6769626c653a20746f20616e6420616d6f60008201527f756e7473206c656e677468206d69736d61746368000000000000000000000000602082015250565b7f455243313135353a206275726e2066726f6d20746865207a65726f206164647260008201527f6573730000000000000000000000000000000000000000000000000000000000602082015250565b7f455243313135353a20696e73756666696369656e742062616c616e636520666f60008201527f72207472616e7366657200000000000000000000000000000000000000000000602082015250565b7f455243313135353a2073657474696e6720617070726f76616c2073746174757360008201527f20666f722073656c660000000000000000000000000000000000000000000000602082015250565b7f455243313135353a206163636f756e747320616e6420696473206c656e67746860008201527f206d69736d617463680000000000000000000000000000000000000000000000602082015250565b7f455243313135353a2069647320616e6420616d6f756e7473206c656e6774682060008201527f6d69736d61746368000000000000000000000000000000000000000000000000602082015250565b7f455243313135353a206d696e7420746f20746865207a65726f2061646472657360008201527f7300000000000000000000000000000000000000000000000000000000000000602082015250565b600060443d10156141fa5761427d565b614202613940565b60043d036004823e80513d602482011167ffffffffffffffff8211171561422a57505061427d565b808201805167ffffffffffffffff811115614248575050505061427d565b80602083010160043d03850181111561426557505050505061427d565b61427482602001850186613bb3565b82955050505050505b90565b61428981613acb565b811461429457600080fd5b50565b6142a081613add565b81146142ab57600080fd5b50565b6142b781613ae9565b81146142c257600080fd5b50565b6142ce81613b35565b81146142d957600080fd5b5056fea2646970667358221220294807453883ec73af4b9e8ca1836696c00f88042e85782bf38ba686bd810b9364736f6c63430008040033",
  "linkReferences": {},
  "deployedLinkReferences": {}
}